:0300000002001EDD
:0C001E00787FE4F6D8FD758130020065A3
:0801C30012000312001580FE7A
:1000AA00E4F52F1200F77F041201B7EF4E70F47DCA
:1000BA00F47C017F041201AB052FE52F30E017E431
:1000CA00F52EE52EC3940650DA7B01AD2EAF2E1223
:1000DA00017C052E80ECE4F52EE52EC3940650C370
:0D00EA00AF2E052EE4FB7D0A12017C80EC98
:030015000200AA3C
:10000300758910758DF8758B3AC28FD2ABD2AFD28A
:020013008E223B
:03001B0002013AA5
:10013A00C0E0C0F0C083C082C0D075D008758DF809
:10014A00758B3A12015BD0D0D082D083D0F0D0E048
:01015A003272
:10015B00E4FFEF25E02422F8E6FC08E64C600DEF07
:10016B0025E02422F808E616187001160FBF06E2E8
:01017B002261
:0C01AB00EF25E02422F8A60408A6052297
:0C01B700EF25E02422F8E6FE08E6FF2217
:10019A000B173F065B4F666D7C07FFE700011000F7
:1000F700AF107401A807088002C333D8FCF4F530A9
:100107007F011201B7EF4E7003D38001C350237DE7
:10011700017C007F011201AB75B0FF74112510F847
:10012700E6F5A08530B00510E510C394064003E45A
:02013700F510C1
:0101390022A3
:10017C00EFC3940B501774172DF8E6FE74112FF87B
:0E018C00A606EB600874112FF8E64480F622F8
:10002A000201C3E493A3F8E493A34003F68001F228
:10003A0008DFF48029E493A3F85407240CC8C333D7
:10004A00C4540F4420C8834004F456800146F6DFA6
:10005A00E4800B010204081020408090019AE47E9B
:10006A00019360BCA3FF543F30E509541FFEE4939B
:10007A00A360010ECF54C025E060A840B8E493A362
:10008A00FAE493A3F8E493A3C8C582C8CAC583CA8D
:10009A00F0A3C8C582C8CAC583CADFE9DEE780BE45
:0101AA000054
:00000001FF
